{
  "address": "0x5FC8d32690cc91D4c39d9d3abcBD16989F875707",
  "abi": [
    {
      "inputs": [],
      "stateMutability": "nonpayable",
      "type": "constructor"
    },
    {
      "anonymous": false,
      "inputs": [
        {
          "indexed": true,
          "internalType": "address",
          "name": "owner",
          "type": "address"
        },
        {
          "indexed": true,
          "internalType": "address",
          "name": "spender",
          "type": "address"
        },
        {
          "indexed": false,
          "internalType": "uint256",
          "name": "value",
          "type": "uint256"
        }
      ],
      "name": "Approval",
      "type": "event"
    },
    {
      "anonymous": false,
      "inputs": [
        {
          "indexed": true,
          "internalType": "address",
          "name": "account",
          "type": "address"
        },
        {
          "indexed": false,
          "internalType": "uint256",
          "name": "amount",
          "type": "uint256"
        }
      ],
      "name": "Deposit",
      "type": "event"
    },
    {
      "anonymous": false,
      "inputs": [
        {
          "indexed": true,
          "internalType": "address",
          "name": "from",
          "type": "address"
        },
        {
          "indexed": true,
          "internalType": "address",
          "name": "to",
          "type": "address"
        },
        {
          "indexed": false,
          "internalType": "uint256",
          "name": "value",
          "type": "uint256"
        }
      ],
      "name": "Transfer",
      "type": "event"
    },
    {
      "anonymous": false,
      "inputs": [
        {
          "indexed": true,
          "internalType": "address",
          "name": "account",
          "type": "address"
        },
        {
          "indexed": false,
          "internalType": "uint256",
          "name": "amount",
          "type": "uint256"
        }
      ],
      "name": "Withdraw",
      "type": "event"
    },
    {
      "inputs": [
        {
          "internalType": "address",
          "name": "owner",
          "type": "address"
        },
        {
          "internalType": "address",
          "name": "spender",
          "type": "address"
        }
      ],
      "name": "allowance",
      "outputs": [
        {
          "internalType": "uint256",
          "name": "",
          "type": "uint256"
        }
      ],
      "stateMutability": "view",
      "type": "function"
    },
    {
      "inputs": [
        {
          "internalType": "address",
          "name": "spender",
          "type": "address"
        },
        {
          "internalType": "uint256",
          "name": "amount",
          "type": "uint256"
        }
      ],
      "name": "approve",
      "outputs": [
        {
          "internalType": "bool",
          "name": "",
          "type": "bool"
        }
      ],
      "stateMutability": "nonpayable",
      "type": "function"
    },
    {
      "inputs": [
        {
          "internalType": "address",
          "name": "account",
          "type": "address"
        }
      ],
      "name": "balanceOf",
      "outputs": [
        {
          "internalType": "uint256",
          "name": "",
          "type": "uint256"
        }
      ],
      "stateMutability": "view",
      "type": "function"
    },
    {
      "inputs": [],
      "name": "decimals",
      "outputs": [
        {
          "internalType": "uint8",
          "name": "",
          "type": "uint8"
        }
      ],
      "stateMutability": "view",
      "type": "function"
    },
    {
      "inputs": [
        {
          "internalType": "address",
          "name": "spender",
          "type": "address"
        },
        {
          "internalType": "uint256",
          "name": "subtractedValue",
          "type": "uint256"
        }
      ],
      "name": "decreaseAllowance",
      "outputs": [
        {
          "internalType": "bool",
          "name": "",
          "type": "bool"
        }
      ],
      "stateMutability": "nonpayable",
      "type": "function"
    },
    {
      "inputs": [],
      "name": "deposit",
      "outputs": [],
      "stateMutability": "payable",
      "type": "function"
    },
    {
      "inputs": [
        {
          "internalType": "address",
          "name": "spender",
          "type": "address"
        },
        {
          "internalType": "uint256",
          "name": "addedValue",
          "type": "uint256"
        }
      ],
      "name": "increaseAllowance",
      "outputs": [
        {
          "internalType": "bool",
          "name": "",
          "type": "bool"
        }
      ],
      "stateMutability": "nonpayable",
      "type": "function"
    },
    {
      "inputs": [],
      "name": "name",
      "outputs": [
        {
          "internalType": "string",
          "name": "",
          "type": "string"
        }
      ],
      "stateMutability": "view",
      "type": "function"
    },
    {
      "inputs": [],
      "name": "symbol",
      "outputs": [
        {
          "internalType": "string",
          "name": "",
          "type": "string"
        }
      ],
      "stateMutability": "view",
      "type": "function"
    },
    {
      "inputs": [],
      "name": "totalSupply",
      "outputs": [
        {
          "internalType": "uint256",
          "name": "",
          "type": "uint256"
        }
      ],
      "stateMutability": "view",
      "type": "function"
    },
    {
      "inputs": [
        {
          "internalType": "address",
          "name": "to",
          "type": "address"
        },
        {
          "internalType": "uint256",
          "name": "amount",
          "type": "uint256"
        }
      ],
      "name": "transfer",
      "outputs": [
        {
          "internalType": "bool",
          "name": "",
          "type": "bool"
        }
      ],
      "stateMutability": "nonpayable",
      "type": "function"
    },
    {
      "inputs": [
        {
          "internalType": "address",
          "name": "from",
          "type": "address"
        },
        {
          "internalType": "address",
          "name": "to",
          "type": "address"
        },
        {
          "internalType": "uint256",
          "name": "amount",
          "type": "uint256"
        }
      ],
      "name": "transferFrom",
      "outputs": [
        {
          "internalType": "bool",
          "name": "",
          "type": "bool"
        }
      ],
      "stateMutability": "nonpayable",
      "type": "function"
    },
    {
      "inputs": [
        {
          "internalType": "uint256",
          "name": "amount",
          "type": "uint256"
        }
      ],
      "name": "withdraw",
      "outputs": [],
      "stateMutability": "nonpayable",
      "type": "function"
    }
  ],
  "transactionHash": "0x8e6aed1c2e04cb1982328bbc1e77975b37d96d05ab5aad2758f4fd37c5562b53",
  "args": [],
  "numDeployments": 1,
  "solcInputHash": "02b5627585e1846cbd31209ea713cbad",
  "bytecode": "0x60806040523480156200001157600080fd5b506040518060400160405280600d81526020017f57726170706564204574686572000000000000000000000000000000000000008152506040518060400160405280600481526020017f574554480000000000000000000000000000000000000000000000000000000081525081600390816200008f919062000324565b508060049081620000a1919062000324565b5050506200040b565b600081519050919050565b7f4e487b7100000000000000000000000000000000000000000000000000000000600052604160045260246000fd5b7f4e487b7100000000000000000000000000000000000000000000000000000000600052602260045260246000fd5b600060028204905060018216806200012c57607f821691505b602082108103620001425762000141620000e4565b5b50919050565b60008190508160005260206000209050919050565b60006020601f8301049050919050565b600082821b905092915050565b600060088302620001ac7fffffffffffffffffffffffffffffffffffffffffffffffffffffffffffffffff826200016d565b620001b886836200016d565b95508019841693508086168417925050509392505050565b6000819050919050565b6000819050919050565b600062000205620001ff620001f984620001d0565b620001da565b620001d0565b9050919050565b6000819050919050565b6200022183620001e4565b6200023962000230826200020c565b8484546200017a565b825550505050565b600090565b6200025062000241565b6200025d81848462000216565b505050565b5b8181101562000285576200027960008262000246565b60018101905062000263565b5050565b601f821115620002d4576200029e8162000148565b620002a9846200015d565b81016020851015620002b9578190505b620002d1620002c8856200015d565b83018262000262565b50505b505050565b600082821c905092915050565b6000620002f960001984600802620002d9565b1980831691505092915050565b6000620003148383620002e6565b9150826002028217905092915050565b6200032f82620000aa565b67ffffffffffffffff8111156200034b576200034a620000b5565b5b62000357825462000113565b6200036482828562000289565b600060209050601f8311600181146200039c576000841562000387578287015190505b62000393858262000306565b86555062000403565b601f198416620003ac8662000148565b60005b82811015620003d657848901518255600182019150602085019450602081019050620003af565b86831015620003f65784890151620003f2601f891682620002e6565b8355505b6001600288020188555050505b505050505050565b61189f806200041b6000396000f3fe6080604052600436106100c25760003560e01c8063395093511161007f578063a457c2d711610059578063a457c2d714610290578063a9059cbb146102cd578063d0e30db01461030a578063dd62ed3e14610314576100c2565b806339509351146101eb57806370a082311461022857806395d89b4114610265576100c2565b806306fdde03146100c7578063095ea7b3146100f257806318160ddd1461012f57806323b872dd1461015a5780632e1a7d4d14610197578063313ce567146101c0575b600080fd5b3480156100d357600080fd5b506100dc610351565b6040516100e99190610fbf565b60405180910390f35b3480156100fe57600080fd5b506101196004803603810190610114919061107a565b6103e3565b60405161012691906110d5565b60405180910390f35b34801561013b57600080fd5b50610144610406565b60405161015191906110ff565b60405180910390f35b34801561016657600080fd5b50610181600480360381019061017c919061111a565b610410565b60405161018e91906110d5565b60405180910390f35b3480156101a357600080fd5b506101be60048036038101906101b9919061116d565b61043f565b005b3480156101cc57600080fd5b506101d561049a565b6040516101e291906111b6565b60405180910390f35b3480156101f757600080fd5b50610212600480360381019061020d919061107a565b6104a3565b60405161021f91906110d5565b60405180910390f35b34801561023457600080fd5b5061024f600480360381019061024a91906111d1565b6104da565b60405161025c91906110ff565b60405180910390f35b34801561027157600080fd5b5061027a610522565b6040516102879190610fbf565b60405180910390f35b34801561029c57600080fd5b506102b760048036038101906102b2919061107a565b6105b4565b6040516102c491906110d5565b60405180910390f35b3480156102d957600080fd5b506102f460048036038101906102ef919061107a565b61062b565b60405161030191906110d5565b60405180910390f35b61031261064e565b005b34801561032057600080fd5b5061033b600480360381019061033691906111fe565b6106a8565b60405161034891906110ff565b60405180910390f35b6060600380546103609061126d565b80601f016020809104026020016040519081016040528092919081815260200182805461038c9061126d565b80156103d95780601f106103ae576101008083540402835291602001916103d9565b820191906000526020600020905b8154815290600101906020018083116103bc57829003601f168201915b5050505050905090565b6000806103ee61072f565b90506103fb818585610737565b600191505092915050565b6000600254905090565b60008061041b61072f565b9050610428858285610900565b61043385858561098c565b60019150509392505050565b6104493382610c02565b3373ffffffffffffffffffffffffffffffffffffffff167f884edad9ce6fa2440d8a54cc123490eb96d2768479d49ff9c7366125a94243648260405161048f91906110ff565b60405180910390a250565b60006012905090565b6000806104ae61072f565b90506104cf8185856104c085896106a8565b6104ca91906112cd565b610737565b600191505092915050565b60008060008373ffffffffffffffffffffffffffffffffffffffff1673ffffffffffffffffffffffffffffffffffffffff168152602001908152602001600020549050919050565b6060600480546105319061126d565b80601f016020809104026020016040519081016040528092919081815260200182805461055d9061126d565b80156105aa5780601f1061057f576101008083540402835291602001916105aa565b820191906000526020600020905b81548152906001019060200180831161058d57829003601f168201915b5050505050905090565b6000806105bf61072f565b905060006105cd82866106a8565b905083811015610612576040517f08c379a000000000000000000000000000000000000000000000000000000000815260040161060990611373565b60405180910390fd5b61061f8286868403610737565b60019250505092915050565b60008061063661072f565b905061064381858561098c565b600191505092915050565b6106583334610dcf565b3373ffffffffffffffffffffffffffffffffffffffff167fe1fffcc4923d04b559f4d29a8bfc6cda04eb5b0d3c460751c2402c5c5cc9109c3460405161069e91906110ff565b60405180910390a2565b6000600160008473ffffffffffffffffffffffffffffffffffffffff1673ffffffffffffffffffffffffffffffffffffffff16815260200190815260200160002060008373ffffffffffffffffffffffffffffffffffffffff1673ffffffffffffffffffffffffffffffffffffffff16815260200190815260200160002054905092915050565b600033905090565b600073ffffffffffffffffffffffffffffffffffffffff168373ffffffffffffffffffffffffffffffffffffffff16036107a6576040517f08c379a000000000000000000000000000000000000000000000000000000000815260040161079d90611405565b60405180910390fd5b600073ffffffffffffffffffffffffffffffffffffffff168273ffffffffffffffffffffffffffffffffffffffff1603610815576040517f08c379a000000000000000000000000000000000000000000000000000000000815260040161080c90611497565b60405180910390fd5b80600160008573ffffffffffffffffffffffffffffffffffffffff1673ffffffffffffffffffffffffffffffffffffffff16815260200190815260200160002060008473ffffffffffffffffffffffffffffffffffffffff1673ffffffffffffffffffffffffffffffffffffffff168152602001908152602001600020819055508173ffffffffffffffffffffffffffffffffffffffff168373ffffffffffffffffffffffffffffffffffffffff167f8c5be1e5ebec7d5bd14f71427d1e84f3dd0314c0f7b2291e5b200ac8c7c3b925836040516108f391906110ff565b60405180910390a3505050565b600061090c84846106a8565b90507fffffffffffffffffffffffffffffffffffffffffffffffffffffffffffffffff81146109865781811015610978576040517f08c379a000000000000000000000000000000000000000000000000000000000815260040161096f90611503565b60405180910390fd5b6109858484848403610737565b5b50505050565b600073ffffffffffffffffffffffffffffffffffffffff168373ffffffffffffffffffffffffffffffffffffffff16036109fb576040517f08c379a00000000000000000000000000000000000000000000000000000000081526004016109f290611595565b60405180910390fd5b600073ffffffffffffffffffffffffffffffffffffffff168273ffffffffffffffffffffffffffffffffffffffff1603610a6a576040517f08c379a0000000000000000000000000000000000000000000000000000000008152600401610a6190611627565b60405180910390fd5b610a75838383610f25565b60008060008573ffffffffffffffffffffffffffffffffffffffff1673ffffffffffffffffffffffffffffffffffffffff16815260200190815260200160002054905081811015610afb576040517f08c379a0000000000000000000000000000000000000000000000000000000008152600401610af2906116b9565b60405180910390fd5b8181036000808673ffffffffffffffffffffffffffffffffffffffff1673ffffffffffffffffffffffffffffffffffffffff16815260200190815260200160002081905550816000808573ffffffffffffffffffffffffffffffffffffffff1673ffffffffffffffffffffffffffffffffffffffff168152602001908152602001600020600082825401925050819055508273ffffffffffffffffffffffffffffffffffffffff168473ffffffffffffffffffffffffffffffffffffffff167fddf252ad1be2c89b69c2b068fc378daa952ba7f163c4a11628f55a4df523b3ef84604051610be991906110ff565b60405180910390a3610bfc848484610f2a565b50505050565b600073ffffffffffffffffffffffffffffffffffffffff168273ffffffffffffffffffffffffffffffffffffffff1603610c71576040517f08c379a0000000000000000000000000000000000000000000000000000000008152600401610c689061174b565b60405180910390fd5b610c7d82600083610f25565b60008060008473ffffffffffffffffffffffffffffffffffffffff1673ffffffffffffffffffffffffffffffffffffffff16815260200190815260200160002054905081811015610d03576040517f08c379a0000000000000000000000000000000000000000000000000000000008152600401610cfa906117dd565b60405180910390fd5b8181036000808573ffffffffffffffffffffffffffffffffffffffff1673ffffffffffffffffffffffffffffffffffffffff1681526020019081526020016000208190555081600260008282540392505081905550600073ffffffffffffffffffffffffffffffffffffffff168373ffffffffffffffffffffffffffffffffffffffff167fddf252ad1be2c89b69c2b068fc378daa952ba7f163c4a11628f55a4df523b3ef84604051610db691906110ff565b60405180910390a3610dca83600084610f2a565b505050565b600073ffffffffffffffffffffffffffffffffffffffff168273ffffffffffffffffffffffffffffffffffffffff1603610e3e576040517f08c379a0000000000000000000000000000000000000000000000000000000008152600401610e3590611849565b60405180910390fd5b610e4a60008383610f25565b8060026000828254610e5c91906112cd565b92505081905550806000808473ffffffffffffffffffffffffffffffffffffffff1673ffffffffffffffffffffffffffffffffffffffff168152602001908152602001600020600082825401925050819055508173ffffffffffffffffffffffffffffffffffffffff16600073ffffffffffffffffffffffffffffffffffffffff167fddf252ad1be2c89b69c2b068fc378daa952ba7f163c4a11628f55a4df523b3ef83604051610f0d91906110ff565b60405180910390a3610f2160008383610f2a565b5050565b505050565b505050565b600081519050919050565b600082825260208201905092915050565b60005b83811015610f69578082015181840152602081019050610f4e565b60008484015250505050565b6000601f19601f8301169050919050565b6000610f9182610f2f565b610f9b8185610f3a565b9350610fab818560208601610f4b565b610fb481610f75565b840191505092915050565b60006020820190508181036000830152610fd98184610f86565b905092915050565b600080fd5b600073ffffffffffffffffffffffffffffffffffffffff82169050919050565b600061101182610fe6565b9050919050565b61102181611006565b811461102c57600080fd5b50565b60008135905061103e81611018565b92915050565b6000819050919050565b61105781611044565b811461106257600080fd5b50565b6000813590506110748161104e565b92915050565b6000806040838503121561109157611090610fe1565b5b600061109f8582860161102f565b92505060206110b085828601611065565b9150509250929050565b60008115159050919050565b6110cf816110ba565b82525050565b60006020820190506110ea60008301846110c6565b92915050565b6110f981611044565b82525050565b600060208201905061111460008301846110f0565b92915050565b60008060006060848603121561113357611132610fe1565b5b60006111418682870161102f565b93505060206111528682870161102f565b925050604061116386828701611065565b9150509250925092565b60006020828403121561118357611182610fe1565b5b600061119184828501611065565b91505092915050565b600060ff82169050919050565b6111b08161119a565b82525050565b60006020820190506111cb60008301846111a7565b92915050565b6000602082840312156111e7576111e6610fe1565b5b60006111f58482850161102f565b91505092915050565b6000806040838503121561121557611214610fe1565b5b60006112238582860161102f565b92505060206112348582860161102f565b9150509250929050565b7f4e487b7100000000000000000000000000000000000000000000000000000000600052602260045260246000fd5b6000600282049050600182168061128557607f821691505b6020821081036112985761129761123e565b5b50919050565b7f4e487b7100000000000000000000000000000000000000000000000000000000600052601160045260246000fd5b60006112d882611044565b91506112e383611044565b92508282019050808211156112fb576112fa61129e565b5b92915050565b7f45524332303a2064656372656173656420616c6c6f77616e63652062656c6f7760008201527f207a65726f000000000000000000000000000000000000000000000000000000602082015250565b600061135d602583610f3a565b915061136882611301565b604082019050919050565b6000602082019050818103600083015261138c81611350565b9050919050565b7f45524332303a20617070726f76652066726f6d20746865207a65726f2061646460008201527f7265737300000000000000000000000000000000000000000000000000000000602082015250565b60006113ef602483610f3a565b91506113fa82611393565b604082019050919050565b6000602082019050818103600083015261141e816113e2565b9050919050565b7f45524332303a20617070726f766520746f20746865207a65726f20616464726560008201527f7373000000000000000000000000000000000000000000000000000000000000602082015250565b6000611481602283610f3a565b915061148c82611425565b604082019050919050565b600060208201905081810360008301526114b081611474565b9050919050565b7f45524332303a20696e73756666696369656e7420616c6c6f77616e6365000000600082015250565b60006114ed601d83610f3a565b91506114f8826114b7565b602082019050919050565b6000602082019050818103600083015261151c816114e0565b9050919050565b7f45524332303a207472616e736665722066726f6d20746865207a65726f20616460008201527f6472657373000000000000000000000000000000000000000000000000000000602082015250565b600061157f602583610f3a565b915061158a82611523565b604082019050919050565b600060208201905081810360008301526115ae81611572565b9050919050565b7f45524332303a207472616e7366657220746f20746865207a65726f206164647260008201527f6573730000000000000000000000000000000000000000000000000000000000602082015250565b6000611611602383610f3a565b915061161c826115b5565b604082019050919050565b6000602082019050818103600083015261164081611604565b9050919050565b7f45524332303a207472616e7366657220616d6f756e742065786365656473206260008201527f616c616e63650000000000000000000000000000000000000000000000000000602082015250565b60006116a3602683610f3a565b91506116ae82611647565b604082019050919050565b600060208201905081810360008301526116d281611696565b9050919050565b7f45524332303a206275726e2066726f6d20746865207a65726f2061646472657360008201527f7300000000000000000000000000000000000000000000000000000000000000602082015250565b6000611735602183610f3a565b9150611740826116d9565b604082019050919050565b6000602082019050818103600083015261176481611728565b9050919050565b7f45524332303a206275726e20616d6f756e7420657863656564732062616c616e60008201527f6365000000000000000000000000000000000000000000000000000000000000602082015250565b60006117c7602283610f3a565b91506117d28261176b565b604082019050919050565b600060208201905081810360008301526117f6816117ba565b9050919050565b7f45524332303a206d696e7420746f20746865207a65726f206164647265737300600082015250565b6000611833601f83610f3a565b915061183e826117fd565b602082019050919050565b6000602082019050818103600083015261186281611826565b905091905056fea26469706673582212205f45ddddf6caaaafe1a98cf1c91fe9ea84610dae7ca3a37875b8676686175a6664736f6c63430008110033",
  "devdoc": {
    "kind": "dev",
    "methods": {
      "allowance(address,address)": {
        "details": "See {IERC20-allowance}."
      },
      "approve(address,uint256)": {
        "details": "See {IERC20-approve}. NOTE: If `amount` is the maximum `uint256`, the allowance is not updated on `transferFrom`. This is semantically equivalent to an infinite approval. Requirements: - `spender` cannot be the zero address."
      },
      "balanceOf(address)": {
        "details": "See {IERC20-balanceOf}."
      },
      "decimals()": {
        "details": "Returns the number of decimals used to get its user representation. For example, if `decimals` equals `2`, a balance of `505` tokens should be displayed to a user as `5.05` (`505 / 10 ** 2`). Tokens usually opt for a value of 18, imitating the relationship between Ether and Wei. This is the value {ERC20} uses, unless this function is overridden; NOTE: This information is only used for _display_ purposes: it in no way affects any of the arithmetic of the contract, including {IERC20-balanceOf} and {IERC20-transfer}."
      },
      "decreaseAllowance(address,uint256)": {
        "details": "Atomically decreases the allowance granted to `spender` by the caller. This is an alternative to {approve} that can be used as a mitigation for problems described in {IERC20-approve}. Emits an {Approval} event indicating the updated allowance. Requirements: - `spender` cannot be the zero address. - `spender` must have allowance for the caller of at least `subtractedValue`."
      },
      "increaseAllowance(address,uint256)": {
        "details": "Atomically increases the allowance granted to `spender` by the caller. This is an alternative to {approve} that can be used as a mitigation for problems described in {IERC20-approve}. Emits an {Approval} event indicating the updated allowance. Requirements: - `spender` cannot be the zero address."
      },
      "name()": {
        "details": "Returns the name of the token."
      },
      "symbol()": {
        "details": "Returns the symbol of the token, usually a shorter version of the name."
      },
      "totalSupply()": {
        "details": "See {IERC20-totalSupply}."
      },
      "transfer(address,uint256)": {
        "details": "See {IERC20-transfer}. Requirements: - `to` cannot be the zero address. - the caller must have a balance of at least `amount`."
      },
      "transferFrom(address,address,uint256)": {
        "details": "See {IERC20-transferFrom}. Emits an {Approval} event indicating the updated allowance. This is not required by the EIP. See the note at the beginning of {ERC20}. NOTE: Does not update the allowance if the current allowance is the maximum `uint256`. Requirements: - `from` and `to` cannot be the zero address. - `from` must have a balance of at least `amount`. - the caller must have allowance for ``from``'s tokens of at least `amount`."
      }
    },
    "version": 1
  },
  "userdoc": {
    "kind": "user",
    "methods": {},
    "version": 1
  },
  "storageLayout": {
    "storage": [
      {
        "astId": 88,
        "contract": "contracts/WETH.sol:WETH",
        "label": "_balances",
        "offset": 0,
        "slot": "0",
        "type": "t_mapping(t_address,t_uint256)"
      },
      {
        "astId": 94,
        "contract": "contracts/WETH.sol:WETH",
        "label": "_allowances",
        "offset": 0,
        "slot": "1",
        "type": "t_mapping(t_address,t_mapping(t_address,t_uint256))"
      },
      {
        "astId": 96,
        "contract": "contracts/WETH.sol:WETH",
        "label": "_totalSupply",
        "offset": 0,
        "slot": "2",
        "type": "t_uint256"
      },
      {
        "astId": 98,
        "contract": "contracts/WETH.sol:WETH",
        "label": "_name",
        "offset": 0,
        "slot": "3",
        "type": "t_string_storage"
      },
      {
        "astId": 100,
        "contract": "contracts/WETH.sol:WETH",
        "label": "_symbol",
        "offset": 0,
        "slot": "4",
        "type": "t_string_storage"
      }
    ],
    "types": {
      "t_address": {
        "encoding": "inplace",
        "label": "address",
        "numberOfBytes": "20"
      },
      "t_mapping(t_address,t_mapping(t_address,t_uint256))": {
        "encoding": "mapping",
        "key": "t_address",
        "label": "mapping(address => mapping(address => uint256))",
        "numberOfBytes": "32",
        "value": "t_mapping(t_address,t_uint256)"
      },
      "t_mapping(t_address,t_uint256)": {
        "encoding": "mapping",
        "key": "t_address",
        "label": "mapping(address => uint256)",
        "numberOfBytes": "32",
        "value": "t_uint256"
      },
      "t_string_storage": {
        "encoding": "bytes",
        "label": "string",
        "numberOfBytes": "32"
      },
      "t_uint256": {
        "encoding": "inplace",
        "label": "uint256",
        "numberOfBytes": "32"
      }
    }
  }
}