{
  "address": "0xEe05881ee955e633CBc54795643617a317f663c8",
  "abi": [
    {
      "inputs": [],
      "stateMutability": "nonpayable",
      "type": "constructor"
    },
    {
      "inputs": [],
      "name": "WETH",
      "outputs": [
        {
          "internalType": "address",
          "name": "",
          "type": "address"
        }
      ],
      "stateMutability": "view",
      "type": "function"
    },
    {
      "inputs": [],
      "name": "auction",
      "outputs": [
        {
          "internalType": "address",
          "name": "",
          "type": "address"
        }
      ],
      "stateMutability": "view",
      "type": "function"
    },
    {
      "inputs": [],
      "name": "marketplace",
      "outputs": [
        {
          "internalType": "address",
          "name": "",
          "type": "address"
        }
      ],
      "stateMutability": "view",
      "type": "function"
    },
    {
      "inputs": [],
      "name": "nft",
      "outputs": [
        {
          "internalType": "address",
          "name": "",
          "type": "address"
        }
      ],
      "stateMutability": "view",
      "type": "function"
    },
    {
      "inputs": [],
      "name": "nftFactory",
      "outputs": [
        {
          "internalType": "address",
          "name": "",
          "type": "address"
        }
      ],
      "stateMutability": "view",
      "type": "function"
    },
    {
      "inputs": [],
      "name": "owner",
      "outputs": [
        {
          "internalType": "address",
          "name": "",
          "type": "address"
        }
      ],
      "stateMutability": "view",
      "type": "function"
    },
    {
      "inputs": [
        {
          "internalType": "address",
          "name": "_auction",
          "type": "address"
        }
      ],
      "name": "updateAuction",
      "outputs": [],
      "stateMutability": "nonpayable",
      "type": "function"
    },
    {
      "inputs": [
        {
          "internalType": "address",
          "name": "_marketplace",
          "type": "address"
        }
      ],
      "name": "updateMarketplace",
      "outputs": [],
      "stateMutability": "nonpayable",
      "type": "function"
    },
    {
      "inputs": [
        {
          "internalType": "address",
          "name": "_nft",
          "type": "address"
        }
      ],
      "name": "updateNft",
      "outputs": [],
      "stateMutability": "nonpayable",
      "type": "function"
    },
    {
      "inputs": [
        {
          "internalType": "address",
          "name": "_nftFactory",
          "type": "address"
        }
      ],
      "name": "updateNftFactory",
      "outputs": [],
      "stateMutability": "nonpayable",
      "type": "function"
    },
    {
      "inputs": [
        {
          "internalType": "address",
          "name": "_WETH",
          "type": "address"
        }
      ],
      "name": "updateWETH",
      "outputs": [],
      "stateMutability": "nonpayable",
      "type": "function"
    }
  ],
  "transactionHash": "0x51d1cfe822d12d2a6c33056c95a621cfbb542eeea2a53f458519fd950b7e6513",
  "args": [],
  "numDeployments": 1,
  "solcInputHash": "91071ea27be98ae92d82a1b2229a8e65",
  "bytecode": "0x60a060405234801561001057600080fd5b503373ffffffffffffffffffffffffffffffffffffffff1660808173ffffffffffffffffffffffffffffffffffffffff1681525050608051610a3b610083600039600081816101f0015281816102c201528181610394015281816105720152818161060601526106d70152610a3b6000f3fe608060405234801561001057600080fd5b50600436106100a95760003560e01c80638da5cb5b116100715780638da5cb5b1461013e578063abc8c7af1461015c578063ad5c46481461017a578063d63843cd14610198578063eb636317146101b6578063fe9440d7146101d2576100a9565b80630e015c76146100ae5780633402a036146100ca57806336450ccc146100e657806347ccca02146101025780637d9f6db514610120575b600080fd5b6100c860048036038101906100c3919061080a565b6101ee565b005b6100e460048036038101906100df919061080a565b6102c0565b005b61010060048036038101906100fb919061080a565b610392565b005b61010a610524565b6040516101179190610846565b60405180910390f35b61012861054a565b6040516101359190610846565b60405180910390f35b610146610570565b6040516101539190610846565b60405180910390f35b610164610594565b6040516101719190610846565b60405180910390f35b6101826105b8565b60405161018f9190610846565b60405180910390f35b6101a06105de565b6040516101ad9190610846565b60405180910390f35b6101d060048036038101906101cb919061080a565b610604565b005b6101ec60048036038101906101e7919061080a565b6106d5565b005b7f000000000000000000000000000000000000000000000000000000000000000073ffffffffffffffffffffffffffffffffffffffff163373ffffffffffffffffffffffffffffffffffffffff161461027c576040517f08c379a0000000000000000000000000000000000000000000000000000000008152600401610273906108be565b60405180910390fd5b80600360006101000a81548173ffffffffffffffffffffffffffffffffffffffff021916908373ffffffffffffffffffffffffffffffffffffffff16021790555050565b7f000000000000000000000000000000000000000000000000000000000000000073ffffffffffffffffffffffffffffffffffffffff163373ffffffffffffffffffffffffffffffffffffffff161461034e576040517f08c379a0000000000000000000000000000000000000000000000000000000008152600401610345906108be565b60405180910390fd5b80600160006101000a81548173ffffffffffffffffffffffffffffffffffffffff021916908373ffffffffffffffffffffffffffffffffffffffff16021790555050565b7f000000000000000000000000000000000000000000000000000000000000000073ffffffffffffffffffffffffffffffffffffffff163373ffffffffffffffffffffffffffffffffffffffff1614610420576040517f08c379a0000000000000000000000000000000000000000000000000000000008152600401610417906108be565b60405180910390fd5b8073ffffffffffffffffffffffffffffffffffffffff166301ffc9a76380ac58cd60e01b6040518263ffffffff1660e01b81526004016104609190610919565b602060405180830381865afa15801561047d573d6000803e3d6000fd5b505050506040513d601f19601f820116820180604052508101906104a1919061096c565b6104e0576040517f08c379a00000000000000000000000000000000000000000000000000000000081526004016104d7906109e5565b60405180910390fd5b80600260006101000a81548173ffffffffffffffffffffffffffffffffffffffff021916908373ffffffffffffffffffffffffffffffffffffffff16021790555050565b600260009054906101000a900473ffffffffffffffffffffffffffffffffffffffff1681565b600160009054906101000a900473ffffffffffffffffffffffffffffffffffffffff1681565b7f000000000000000000000000000000000000000000000000000000000000000081565b60008054906101000a900473ffffffffffffffffffffffffffffffffffffffff1681565b600460009054906101000a900473ffffffffffffffffffffffffffffffffffffffff1681565b600360009054906101000a900473ffffffffffffffffffffffffffffffffffffffff1681565b7f000000000000000000000000000000000000000000000000000000000000000073ffffffffffffffffffffffffffffffffffffffff163373ffffffffffffffffffffffffffffffffffffffff1614610692576040517f08c379a0000000000000000000000000000000000000000000000000000000008152600401610689906108be565b60405180910390fd5b806000806101000a81548173ffffffffffffffffffffffffffffffffffffffff021916908373ffffffffffffffffffffffffffffffffffffffff16021790555050565b7f000000000000000000000000000000000000000000000000000000000000000073ffffffffffffffffffffffffffffffffffffffff163373ffffffffffffffffffffffffffffffffffffffff1614610763576040517f08c379a000000000000000000000000000000000000000000000000000000000815260040161075a906108be565b60405180910390fd5b80600460006101000a81548173ffffffffffffffffffffffffffffffffffffffff021916908373ffffffffffffffffffffffffffffffffffffffff16021790555050565b600080fd5b600073ffffffffffffffffffffffffffffffffffffffff82169050919050565b60006107d7826107ac565b9050919050565b6107e7816107cc565b81146107f257600080fd5b50565b600081359050610804816107de565b92915050565b6000602082840312156108205761081f6107a7565b5b600061082e848285016107f5565b91505092915050565b610840816107cc565b82525050565b600060208201905061085b6000830184610837565b92915050565b600082825260208201905092915050565b7f6e6f7420636f6e7472616374206f776e65720000000000000000000000000000600082015250565b60006108a8601283610861565b91506108b382610872565b602082019050919050565b600060208201905081810360008301526108d78161089b565b9050919050565b60007fffffffff0000000000000000000000000000000000000000000000000000000082169050919050565b610913816108de565b82525050565b600060208201905061092e600083018461090a565b92915050565b60008115159050919050565b61094981610934565b811461095457600080fd5b50565b60008151905061096681610940565b92915050565b600060208284031215610982576109816107a7565b5b600061099084828501610957565b91505092915050565b7f696e76616c6964206e6674206164647265737300000000000000000000000000600082015250565b60006109cf601383610861565b91506109da82610999565b602082019050919050565b600060208201905081810360008301526109fe816109c2565b905091905056fea2646970667358221220d8eb0dd05f3f250b779a32d2b643c072b4f7954b3a80882eec9c98eebe3222d364736f6c63430008110033",
  "devdoc": {
    "kind": "dev",
    "methods": {},
    "version": 1
  },
  "userdoc": {
    "kind": "user",
    "methods": {},
    "version": 1
  },
  "storageLayout": {
    "storage": [
      {
        "astId": 3626,
        "contract": "contracts/AddressRegistry.sol:AddressRegistry",
        "label": "marketplace",
        "offset": 0,
        "slot": "0",
        "type": "t_address"
      },
      {
        "astId": 3628,
        "contract": "contracts/AddressRegistry.sol:AddressRegistry",
        "label": "auction",
        "offset": 0,
        "slot": "1",
        "type": "t_address"
      },
      {
        "astId": 3630,
        "contract": "contracts/AddressRegistry.sol:AddressRegistry",
        "label": "nft",
        "offset": 0,
        "slot": "2",
        "type": "t_address"
      },
      {
        "astId": 3632,
        "contract": "contracts/AddressRegistry.sol:AddressRegistry",
        "label": "nftFactory",
        "offset": 0,
        "slot": "3",
        "type": "t_address"
      },
      {
        "astId": 3634,
        "contract": "contracts/AddressRegistry.sol:AddressRegistry",
        "label": "WETH",
        "offset": 0,
        "slot": "4",
        "type": "t_address"
      }
    ],
    "types": {
      "t_address": {
        "encoding": "inplace",
        "label": "address",
        "numberOfBytes": "20"
      }
    }
  }
}