{
  "address": "0xfeAAE8Aa6BE1ad642866e31afb8F35b1524FD8f5",
  "abi": [
    {
      "inputs": [
        {
          "internalType": "string",
          "name": "name",
          "type": "string"
        },
        {
          "internalType": "string",
          "name": "symbol",
          "type": "string"
        },
        {
          "internalType": "uint16",
          "name": "_royaltyFee",
          "type": "uint16"
        },
        {
          "internalType": "address payable",
          "name": "_feeRecipient",
          "type": "address"
        },
        {
          "internalType": "address",
          "name": "_owner",
          "type": "address"
        }
      ],
      "stateMutability": "nonpayable",
      "type": "constructor"
    },
    {
      "anonymous": false,
      "inputs": [
        {
          "indexed": true,
          "internalType": "address",
          "name": "owner",
          "type": "address"
        },
        {
          "indexed": true,
          "internalType": "address",
          "name": "approved",
          "type": "address"
        },
        {
          "indexed": true,
          "internalType": "uint256",
          "name": "tokenId",
          "type": "uint256"
        }
      ],
      "name": "Approval",
      "type": "event"
    },
    {
      "anonymous": false,
      "inputs": [
        {
          "indexed": true,
          "internalType": "address",
          "name": "owner",
          "type": "address"
        },
        {
          "indexed": true,
          "internalType": "address",
          "name": "operator",
          "type": "address"
        },
        {
          "indexed": false,
          "internalType": "bool",
          "name": "approved",
          "type": "bool"
        }
      ],
      "name": "ApprovalForAll",
      "type": "event"
    },
    {
      "anonymous": false,
      "inputs": [
        {
          "indexed": false,
          "internalType": "uint256",
          "name": "tokenId",
          "type": "uint256"
        },
        {
          "indexed": false,
          "internalType": "string",
          "name": "tokenURI",
          "type": "string"
        },
        {
          "indexed": false,
          "internalType": "address",
          "name": "minter",
          "type": "address"
        },
        {
          "indexed": false,
          "internalType": "string",
          "name": "collectionName",
          "type": "string"
        }
      ],
      "name": "Minted",
      "type": "event"
    },
    {
      "anonymous": false,
      "inputs": [
        {
          "indexed": true,
          "internalType": "address",
          "name": "from",
          "type": "address"
        },
        {
          "indexed": true,
          "internalType": "address",
          "name": "to",
          "type": "address"
        },
        {
          "indexed": true,
          "internalType": "uint256",
          "name": "tokenId",
          "type": "uint256"
        }
      ],
      "name": "Transfer",
      "type": "event"
    },
    {
      "anonymous": false,
      "inputs": [
        {
          "indexed": false,
          "internalType": "address",
          "name": "feeRecipient",
          "type": "address"
        },
        {
          "indexed": false,
          "internalType": "uint96",
          "name": "royaltyFee",
          "type": "uint96"
        }
      ],
      "name": "UpdatedRoyalty",
      "type": "event"
    },
    {
      "inputs": [
        {
          "internalType": "address",
          "name": "to",
          "type": "address"
        },
        {
          "internalType": "uint256",
          "name": "tokenId",
          "type": "uint256"
        }
      ],
      "name": "approve",
      "outputs": [],
      "stateMutability": "nonpayable",
      "type": "function"
    },
    {
      "inputs": [
        {
          "internalType": "address",
          "name": "owner",
          "type": "address"
        }
      ],
      "name": "balanceOf",
      "outputs": [
        {
          "internalType": "uint256",
          "name": "",
          "type": "uint256"
        }
      ],
      "stateMutability": "view",
      "type": "function"
    },
    {
      "inputs": [
        {
          "internalType": "uint256",
          "name": "tokenId",
          "type": "uint256"
        }
      ],
      "name": "getApproved",
      "outputs": [
        {
          "internalType": "address",
          "name": "",
          "type": "address"
        }
      ],
      "stateMutability": "view",
      "type": "function"
    },
    {
      "inputs": [
        {
          "internalType": "address",
          "name": "owner",
          "type": "address"
        },
        {
          "internalType": "address",
          "name": "operator",
          "type": "address"
        }
      ],
      "name": "isApprovedForAll",
      "outputs": [
        {
          "internalType": "bool",
          "name": "",
          "type": "bool"
        }
      ],
      "stateMutability": "view",
      "type": "function"
    },
    {
      "inputs": [
        {
          "internalType": "string",
          "name": "_tokenURI",
          "type": "string"
        }
      ],
      "name": "mint",
      "outputs": [
        {
          "internalType": "uint256",
          "name": "",
          "type": "uint256"
        }
      ],
      "stateMutability": "nonpayable",
      "type": "function"
    },
    {
      "inputs": [],
      "name": "name",
      "outputs": [
        {
          "internalType": "string",
          "name": "",
          "type": "string"
        }
      ],
      "stateMutability": "view",
      "type": "function"
    },
    {
      "inputs": [],
      "name": "owner",
      "outputs": [
        {
          "internalType": "address",
          "name": "",
          "type": "address"
        }
      ],
      "stateMutability": "view",
      "type": "function"
    },
    {
      "inputs": [
        {
          "internalType": "uint256",
          "name": "tokenId",
          "type": "uint256"
        }
      ],
      "name": "ownerOf",
      "outputs": [
        {
          "internalType": "address",
          "name": "",
          "type": "address"
        }
      ],
      "stateMutability": "view",
      "type": "function"
    },
    {
      "inputs": [],
      "name": "removeRoyalty",
      "outputs": [],
      "stateMutability": "nonpayable",
      "type": "function"
    },
    {
      "inputs": [
        {
          "internalType": "uint256",
          "name": "_tokenId",
          "type": "uint256"
        },
        {
          "internalType": "uint256",
          "name": "_salePrice",
          "type": "uint256"
        }
      ],
      "name": "royaltyInfo",
      "outputs": [
        {
          "internalType": "address",
          "name": "",
          "type": "address"
        },
        {
          "internalType": "uint256",
          "name": "",
          "type": "uint256"
        }
      ],
      "stateMutability": "view",
      "type": "function"
    },
    {
      "inputs": [
        {
          "internalType": "address",
          "name": "from",
          "type": "address"
        },
        {
          "internalType": "address",
          "name": "to",
          "type": "address"
        },
        {
          "internalType": "uint256",
          "name": "tokenId",
          "type": "uint256"
        }
      ],
      "name": "safeTransferFrom",
      "outputs": [],
      "stateMutability": "nonpayable",
      "type": "function"
    },
    {
      "inputs": [
        {
          "internalType": "address",
          "name": "from",
          "type": "address"
        },
        {
          "internalType": "address",
          "name": "to",
          "type": "address"
        },
        {
          "internalType": "uint256",
          "name": "tokenId",
          "type": "uint256"
        },
        {
          "internalType": "bytes",
          "name": "data",
          "type": "bytes"
        }
      ],
      "name": "safeTransferFrom",
      "outputs": [],
      "stateMutability": "nonpayable",
      "type": "function"
    },
    {
      "inputs": [
        {
          "internalType": "address",
          "name": "operator",
          "type": "address"
        },
        {
          "internalType": "bool",
          "name": "approved",
          "type": "bool"
        }
      ],
      "name": "setApprovalForAll",
      "outputs": [],
      "stateMutability": "nonpayable",
      "type": "function"
    },
    {
      "inputs": [
        {
          "internalType": "bytes4",
          "name": "interfaceId",
          "type": "bytes4"
        }
      ],
      "name": "supportsInterface",
      "outputs": [
        {
          "internalType": "bool",
          "name": "",
          "type": "bool"
        }
      ],
      "stateMutability": "view",
      "type": "function"
    },
    {
      "inputs": [],
      "name": "symbol",
      "outputs": [
        {
          "internalType": "string",
          "name": "",
          "type": "string"
        }
      ],
      "stateMutability": "view",
      "type": "function"
    },
    {
      "inputs": [],
      "name": "tokenIds",
      "outputs": [
        {
          "internalType": "uint256",
          "name": "",
          "type": "uint256"
        }
      ],
      "stateMutability": "view",
      "type": "function"
    },
    {
      "inputs": [
        {
          "internalType": "uint256",
          "name": "tokenId",
          "type": "uint256"
        }
      ],
      "name": "tokenURI",
      "outputs": [
        {
          "internalType": "string",
          "name": "",
          "type": "string"
        }
      ],
      "stateMutability": "view",
      "type": "function"
    },
    {
      "inputs": [
        {
          "internalType": "address",
          "name": "from",
          "type": "address"
        },
        {
          "internalType": "address",
          "name": "to",
          "type": "address"
        },
        {
          "internalType": "uint256",
          "name": "tokenId",
          "type": "uint256"
        }
      ],
      "name": "transferFrom",
      "outputs": [],
      "stateMutability": "nonpayable",
      "type": "function"
    },
    {
      "inputs": [
        {
          "internalType": "address",
          "name": "_feeRecipient",
          "type": "address"
        },
        {
          "internalType": "uint16",
          "name": "_royaltyFee",
          "type": "uint16"
        }
      ],
      "name": "updateRoyalty",
      "outputs": [],
      "stateMutability": "nonpayable",
      "type": "function"
    }
  ],
  "transactionHash": "0xf11f71730ef1a3d0eeec658da55a0d0a3d200816be6017d8c33832baa7d61f2d",
  "args": [
    "collection",
    "CL",
    100,
    "0xE70f3684db78FA5df985cAF17F0E466646B56ac2",
    "0xE70f3684db78FA5df985cAF17F0E466646B56ac2"
  ],
  "numDeployments": 2,
  "solcInputHash": "02b5627585e1846cbd31209ea713cbad",
  "bytecode": "0x60a06040523480156200001157600080fd5b50604051620043ea380380620043ea8339818101604052810190620000379190620004dd565b848481600090816200004a9190620007ee565b5080600190816200005c9190620007ee565b5050508073ffffffffffffffffffffffffffffffffffffffff1660808173ffffffffffffffffffffffffffffffffffffffff1681525050620000a9828461ffff16620000b460201b60201c565b5050505050620009f0565b620000c46200025760201b60201c565b6bffffffffffffffffffffffff16816bffffffffffffffffffffffff16111562000125576040517f08c379a00000000000000000000000000000000000000000000000000000000081526004016200011c906200095c565b60405180910390fd5b600073ffffffffffffffffffffffffffffffffffffffff168273ffffffffffffffffffffffffffffffffffffffff160362000197576040517f08c379a00000000000000000000000000000000000000000000000000000000081526004016200018e90620009ce565b60405180910390fd5b60405180604001604052808373ffffffffffffffffffffffffffffffffffffffff168152602001826bffffffffffffffffffffffff16815250600760008201518160000160006101000a81548173ffffffffffffffffffffffffffffffffffffffff021916908373ffffffffffffffffffffffffffffffffffffffff16021790555060208201518160000160146101000a8154816bffffffffffffffffffffffff02191690836bffffffffffffffffffffffff1602179055509050505050565b6000612710905090565b6000604051905090565b600080fd5b600080fd5b600080fd5b600080fd5b6000601f19601f8301169050919050565b7f4e487b7100000000000000000000000000000000000000000000000000000000600052604160045260246000fd5b620002ca826200027f565b810181811067ffffffffffffffff82111715620002ec57620002eb62000290565b5b80604052505050565b60006200030162000261565b90506200030f8282620002bf565b919050565b600067ffffffffffffffff82111562000332576200033162000290565b5b6200033d826200027f565b9050602081019050919050565b60005b838110156200036a5780820151818401526020810190506200034d565b60008484015250505050565b60006200038d620003878462000314565b620002f5565b905082815260208101848484011115620003ac57620003ab6200027a565b5b620003b98482856200034a565b509392505050565b600082601f830112620003d957620003d862000275565b5b8151620003eb84826020860162000376565b91505092915050565b600061ffff82169050919050565b6200040d81620003f4565b81146200041957600080fd5b50565b6000815190506200042d8162000402565b92915050565b600073ffffffffffffffffffffffffffffffffffffffff82169050919050565b6000620004608262000433565b9050919050565b620004728162000453565b81146200047e57600080fd5b50565b600081519050620004928162000467565b92915050565b6000620004a58262000433565b9050919050565b620004b78162000498565b8114620004c357600080fd5b50565b600081519050620004d781620004ac565b92915050565b600080600080600060a08688031215620004fc57620004fb6200026b565b5b600086015167ffffffffffffffff8111156200051d576200051c62000270565b5b6200052b88828901620003c1565b955050602086015167ffffffffffffffff8111156200054f576200054e62000270565b5b6200055d88828901620003c1565b945050604062000570888289016200041c565b9350506060620005838882890162000481565b92505060806200059688828901620004c6565b9150509295509295909350565b600081519050919050565b7f4e487b7100000000000000000000000000000000000000000000000000000000600052602260045260246000fd5b60006002820490506001821680620005f657607f821691505b6020821081036200060c576200060b620005ae565b5b50919050565b60008190508160005260206000209050919050565b60006020601f8301049050919050565b600082821b905092915050565b600060088302620006767fffffffffffffffffffffffffffffffffffffffffffffffffffffffffffffffff8262000637565b62000682868362000637565b95508019841693508086168417925050509392505050565b6000819050919050565b6000819050919050565b6000620006cf620006c9620006c3846200069a565b620006a4565b6200069a565b9050919050565b6000819050919050565b620006eb83620006ae565b62000703620006fa82620006d6565b84845462000644565b825550505050565b600090565b6200071a6200070b565b62000727818484620006e0565b505050565b5b818110156200074f576200074360008262000710565b6001810190506200072d565b5050565b601f8211156200079e57620007688162000612565b620007738462000627565b8101602085101562000783578190505b6200079b620007928562000627565b8301826200072c565b50505b505050565b600082821c905092915050565b6000620007c360001984600802620007a3565b1980831691505092915050565b6000620007de8383620007b0565b9150826002028217905092915050565b620007f982620005a3565b67ffffffffffffffff81111562000815576200081462000290565b5b620008218254620005dd565b6200082e82828562000753565b600060209050601f83116001811462000866576000841562000851578287015190505b6200085d8582620007d0565b865550620008cd565b601f198416620008768662000612565b60005b82811015620008a05784890151825560018201915060208501945060208101905062000879565b86831015620008c05784890151620008bc601f891682620007b0565b8355505b6001600288020188555050505b505050505050565b600082825260208201905092915050565b7f455243323938313a20726f79616c7479206665652077696c6c2065786365656460008201527f2073616c65507269636500000000000000000000000000000000000000000000602082015250565b600062000944602a83620008d5565b91506200095182620008e6565b604082019050919050565b60006020820190508181036000830152620009778162000935565b9050919050565b7f455243323938313a20696e76616c696420726563656976657200000000000000600082015250565b6000620009b6601983620008d5565b9150620009c3826200097e565b602082019050919050565b60006020820190508181036000830152620009e981620009a7565b9050919050565b6080516139c962000a216000396000818161098101528181610a1901528181610c5b0152610e3f01526139c96000f3fe608060405234801561001057600080fd5b50600436106101215760003560e01c8063714cff56116100ad578063b88d4fde11610071578063b88d4fde14610309578063c87b56dd14610325578063d85d3d2714610355578063e985e9c514610385578063ebdf0919146103b557610121565b8063714cff56146102895780638be02eb0146102a75780638da5cb5b146102b157806395d89b41146102cf578063a22cb465146102ed57610121565b806323b872dd116100f457806323b872dd146101c05780632a55205a146101dc57806342842e0e1461020d5780636352211e1461022957806370a082311461025957610121565b806301ffc9a71461012657806306fdde0314610156578063081812fc14610174578063095ea7b3146101a4575b600080fd5b610140600480360381019061013b9190612345565b6103d1565b60405161014d919061238d565b60405180910390f35b61015e6103e3565b60405161016b9190612438565b60405180910390f35b61018e60048036038101906101899190612490565b610475565b60405161019b91906124fe565b60405180910390f35b6101be60048036038101906101b99190612545565b6104bb565b005b6101da60048036038101906101d59190612585565b6105d2565b005b6101f660048036038101906101f191906125d8565b610632565b604051610204929190612627565b60405180910390f35b61022760048036038101906102229190612585565b61081c565b005b610243600480360381019061023e9190612490565b61083c565b60405161025091906124fe565b60405180910390f35b610273600480360381019061026e9190612650565b6108c2565b604051610280919061267d565b60405180910390f35b610291610979565b60405161029e919061267d565b60405180910390f35b6102af61097f565b005b6102b9610a17565b6040516102c691906124fe565b60405180910390f35b6102d7610a3b565b6040516102e49190612438565b60405180910390f35b610307600480360381019061030291906126c4565b610acd565b005b610323600480360381019061031e9190612839565b610ae3565b005b61033f600480360381019061033a9190612490565b610b45565b60405161034c9190612438565b60405180910390f35b61036f600480360381019061036a919061295d565b610c57565b60405161037c919061267d565b60405180910390f35b61039f600480360381019061039a91906129a6565b610da9565b6040516103ac919061238d565b60405180910390f35b6103cf60048036038101906103ca9190612a20565b610e3d565b005b60006103dc82610fce565b9050919050565b6060600080546103f290612a8f565b80601f016020809104026020016040519081016040528092919081815260200182805461041e90612a8f565b801561046b5780601f106104405761010080835404028352916020019161046b565b820191906000526020600020905b81548152906001019060200180831161044e57829003601f168201915b5050505050905090565b600061048082611048565b6004600083815260200190815260200160002060009054906101000a900473ffffffffffffffffffffffffffffffffffffffff169050919050565b60006104c68261083c565b90508073ffffffffffffffffffffffffffffffffffffffff168373ffffffffffffffffffffffffffffffffffffffff1603610536576040517f08c379a000000000000000000000000000000000000000000000000000000000815260040161052d90612b32565b60405180910390fd5b8073ffffffffffffffffffffffffffffffffffffffff16610555611093565b73ffffffffffffffffffffffffffffffffffffffff16148061058457506105838161057e611093565b610da9565b5b6105c3576040517f08c379a00000000000000000000000000000000000000000000000000000000081526004016105ba90612bc4565b60405180910390fd5b6105cd838361109b565b505050565b6105e36105dd611093565b82611154565b610622576040517f08c379a000000000000000000000000000000000000000000000000000000000815260040161061990612c56565b60405180910390fd5b61062d8383836111e9565b505050565b6000806000600860008681526020019081526020016000206040518060400160405290816000820160009054906101000a900473ffffffffffffffffffffffffffffffffffffffff1673ffffffffffffffffffffffffffffffffffffffff1673ffffffffffffffffffffffffffffffffffffffff1681526020016000820160149054906101000a90046bffffffffffffffffffffffff166bffffffffffffffffffffffff166bffffffffffffffffffffffff16815250509050600073ffffffffffffffffffffffffffffffffffffffff16816000015173ffffffffffffffffffffffffffffffffffffffff16036107c75760076040518060400160405290816000820160009054906101000a900473ffffffffffffffffffffffffffffffffffffffff1673ffffffffffffffffffffffffffffffffffffffff1673ffffffffffffffffffffffffffffffffffffffff1681526020016000820160149054906101000a90046bffffffffffffffffffffffff166bffffffffffffffffffffffff166bffffffffffffffffffffffff168152505090505b60006107d16114e2565b6bffffffffffffffffffffffff1682602001516bffffffffffffffffffffffff16866107fd9190612ca5565b6108079190612d16565b90508160000151819350935050509250929050565b61083783838360405180602001604052806000815250610ae3565b505050565b600080610848836114ec565b9050600073ffffffffffffffffffffffffffffffffffffffff168173ffffffffffffffffffffffffffffffffffffffff16036108b9576040517f08c379a00000000000000000000000000000000000000000000000000000000081526004016108b090612d93565b60405180910390fd5b80915050919050565b60008073ffffffffffffffffffffffffffffffffffffffff168273ffffffffffffffffffffffffffffffffffffffff1603610932576040517f08c379a000000000000000000000000000000000000000000000000000000000815260040161092990612e25565b60405180910390fd5b600360008373ffffffffffffffffffffffffffffffffffffffff1673ffffffffffffffffffffffffffffffffffffffff168152602001908152602001600020549050919050565b60095481565b7f000000000000000000000000000000000000000000000000000000000000000073ffffffffffffffffffffffffffffffffffffffff163373ffffffffffffffffffffffffffffffffffffffff1614610a0d576040517f08c379a0000000000000000000000000000000000000000000000000000000008152600401610a0490612e91565b60405180910390fd5b610a15611529565b565b7f000000000000000000000000000000000000000000000000000000000000000081565b606060018054610a4a90612a8f565b80601f0160208091040260200160405190810160405280929190818152602001828054610a7690612a8f565b8015610ac35780601f10610a9857610100808354040283529160200191610ac3565b820191906000526020600020905b815481529060010190602001808311610aa657829003601f168201915b5050505050905090565b610adf610ad8611093565b8383611576565b5050565b610af4610aee611093565b83611154565b610b33576040517f08c379a0000000000000000000000000000000000000000000000000000000008152600401610b2a90612c56565b60405180910390fd5b610b3f848484846116e2565b50505050565b6060610b5082611048565b6000600660008481526020019081526020016000208054610b7090612a8f565b80601f0160208091040260200160405190810160405280929190818152602001828054610b9c90612a8f565b8015610be95780601f10610bbe57610100808354040283529160200191610be9565b820191906000526020600020905b815481529060010190602001808311610bcc57829003601f168201915b505050505090506000610bfa61173e565b90506000815103610c0f578192505050610c52565b600082511115610c44578082604051602001610c2c929190612eed565b60405160208183030381529060405292505050610c52565b610c4d84611755565b925050505b919050565b60007f000000000000000000000000000000000000000000000000000000000000000073ffffffffffffffffffffffffffffffffffffffff163373ffffffffffffffffffffffffffffffffffffffff1614610ce7576040517f08c379a0000000000000000000000000000000000000000000000000000000008152600401610cde90612e91565b60405180910390fd5b6000825111610d2b576040517f08c379a0000000000000000000000000000000000000000000000000000000008152600401610d2290612f5d565b60405180910390fd5b6000600160096000828254610d409190612f7d565b9250508190559050610d5233826117bd565b610d5c81846117db565b7f1c15becec49ef0b92b749e7df116e7023bce1f3ae6f98bf165bd99dec5291f6c818433610d886103e3565b604051610d989493929190612fb1565b60405180910390a180915050919050565b6000600560008473ffffffffffffffffffffffffffffffffffffffff1673ffffffffffffffffffffffffffffffffffffffff16815260200190815260200160002060008373ffffffffffffffffffffffffffffffffffffffff1673ffffffffffffffffffffffffffffffffffffffff16815260200190815260200160002060009054906101000a900460ff16905092915050565b7f000000000000000000000000000000000000000000000000000000000000000073ffffffffffffffffffffffffffffffffffffffff163373ffffffffffffffffffffffffffffffffffffffff1614610ecb576040517f08c379a0000000000000000000000000000000000000000000000000000000008152600401610ec290612e91565b60405180910390fd5b600073ffffffffffffffffffffffffffffffffffffffff168273ffffffffffffffffffffffffffffffffffffffff1603610f3a576040517f08c379a0000000000000000000000000000000000000000000000000000000008152600401610f3190613050565b60405180910390fd5b6103e88161ffff161115610f83576040517f08c379a0000000000000000000000000000000000000000000000000000000008152600401610f7a906130e2565b60405180910390fd5b610f91828261ffff16611848565b7fd556b9ecb33560a77e60c535c70ecdf5eceb082cda7c41818efb18d40ed3493f8282604051610fc2929190613155565b60405180910390a15050565b60007f2a55205a000000000000000000000000000000000000000000000000000000007bffffffffffffffffffffffffffffffffffffffffffffffffffffffff1916827bffffffffffffffffffffffffffffffffffffffffffffffffffffffff191614806110415750611040826119dd565b5b9050919050565b61105181611abf565b611090576040517f08c379a000000000000000000000000000000000000000000000000000000000815260040161108790612d93565b60405180910390fd5b50565b600033905090565b816004600083815260200190815260200160002060006101000a81548173ffffffffffffffffffffffffffffffffffffffff021916908373ffffffffffffffffffffffffffffffffffffffff160217905550808273ffffffffffffffffffffffffffffffffffffffff1661110e8361083c565b73ffffffffffffffffffffffffffffffffffffffff167f8c5be1e5ebec7d5bd14f71427d1e84f3dd0314c0f7b2291e5b200ac8c7c3b92560405160405180910390a45050565b6000806111608361083c565b90508073ffffffffffffffffffffffffffffffffffffffff168473ffffffffffffffffffffffffffffffffffffffff1614806111a257506111a18185610da9565b5b806111e057508373ffffffffffffffffffffffffffffffffffffffff166111c884610475565b73ffffffffffffffffffffffffffffffffffffffff16145b91505092915050565b8273ffffffffffffffffffffffffffffffffffffffff166112098261083c565b73ffffffffffffffffffffffffffffffffffffffff161461125f576040517f08c379a0000000000000000000000000000000000000000000000000000000008152600401611256906131f0565b60405180910390fd5b600073ffffffffffffffffffffffffffffffffffffffff168273ffffffffffffffffffffffffffffffffffffffff16036112ce576040517f08c379a00000000000000000000000000000000000000000000000000000000081526004016112c590613282565b60405180910390fd5b6112db8383836001611b00565b8273ffffffffffffffffffffffffffffffffffffffff166112fb8261083c565b73ffffffffffffffffffffffffffffffffffffffff1614611351576040517f08c379a0000000000000000000000000000000000000000000000000000000008152600401611348906131f0565b60405180910390fd5b6004600082815260200190815260200160002060006101000a81549073ffffffffffffffffffffffffffffffffffffffff02191690556001600360008573ffffffffffffffffffffffffffffffffffffffff1673ffffffffffffffffffffffffffffffffffffffff168152602001908152602001600020600082825403925050819055506001600360008473ffffffffffffffffffffffffffffffffffffffff1673ffffffffffffffffffffffffffffffffffffffff16815260200190815260200160002060008282540192505081905550816002600083815260200190815260200160002060006101000a81548173ffffffffffffffffffffffffffffffffffffffff021916908373ffffffffffffffffffffffffffffffffffffffff160217905550808273ffffffffffffffffffffffffffffffffffffffff168473ffffffffffffffffffffffffffffffffffffffff167fddf252ad1be2c89b69c2b068fc378daa952ba7f163c4a11628f55a4df523b3ef60405160405180910390a46114dd8383836001611c26565b505050565b6000612710905090565b60006002600083815260200190815260200160002060009054906101000a900473ffffffffffffffffffffffffffffffffffffffff169050919050565b6007600080820160006101000a81549073ffffffffffffffffffffffffffffffffffffffff02191690556000820160146101000a8154906bffffffffffffffffffffffff02191690555050565b8173ffffffffffffffffffffffffffffffffffffffff168373ffffffffffffffffffffffffffffffffffffffff16036115e4576040517f08c379a00000000000000000000000000000000000000000000000000000000081526004016115db906132ee565b60405180910390fd5b80600560008573ffffffffffffffffffffffffffffffffffffffff1673ffffffffffffffffffffffffffffffffffffffff16815260200190815260200160002060008473ffffffffffffffffffffffffffffffffffffffff1673ffffffffffffffffffffffffffffffffffffffff16815260200190815260200160002060006101000a81548160ff0219169083151502179055508173ffffffffffffffffffffffffffffffffffffffff168373ffffffffffffffffffffffffffffffffffffffff167f17307eab39ab6107e8899845ad3d59bd9653f200f220920489ca2b5937696c31836040516116d5919061238d565b60405180910390a3505050565b6116ed8484846111e9565b6116f984848484611c2c565b611738576040517f08c379a000000000000000000000000000000000000000000000000000000000815260040161172f90613380565b60405180910390fd5b50505050565b606060405180602001604052806000815250905090565b606061176082611048565b600061176a61173e565b9050600081511161178a57604051806020016040528060008152506117b5565b8061179484611db3565b6040516020016117a5929190612eed565b6040516020818303038152906040525b915050919050565b6117d7828260405180602001604052806000815250611e81565b5050565b6117e482611abf565b611823576040517f08c379a000000000000000000000000000000000000000000000000000000000815260040161181a90613412565b60405180910390fd5b8060066000848152602001908152602001600020908161184391906135d4565b505050565b6118506114e2565b6bffffffffffffffffffffffff16816bffffffffffffffffffffffff1611156118ae576040517f08c379a00000000000000000000000000000000000000000000000000000000081526004016118a590613718565b60405180910390fd5b600073ffffffffffffffffffffffffffffffffffffffff168273ffffffffffffffffffffffffffffffffffffffff160361191d576040517f08c379a000000000000000000000000000000000000000000000000000000000815260040161191490613784565b60405180910390fd5b60405180604001604052808373ffffffffffffffffffffffffffffffffffffffff168152602001826bffffffffffffffffffffffff16815250600760008201518160000160006101000a81548173ffffffffffffffffffffffffffffffffffffffff021916908373ffffffffffffffffffffffffffffffffffffffff16021790555060208201518160000160146101000a8154816bffffffffffffffffffffffff02191690836bffffffffffffffffffffffff1602179055509050505050565b60007f80ac58cd000000000000000000000000000000000000000000000000000000007bffffffffffffffffffffffffffffffffffffffffffffffffffffffff1916827bffffffffffffffffffffffffffffffffffffffffffffffffffffffff19161480611aa857507f5b5e139f000000000000000000000000000000000000000000000000000000007bffffffffffffffffffffffffffffffffffffffffffffffffffffffff1916827bffffffffffffffffffffffffffffffffffffffffffffffffffffffff1916145b80611ab85750611ab782611edc565b5b9050919050565b60008073ffffffffffffffffffffffffffffffffffffffff16611ae1836114ec565b73ffffffffffffffffffffffffffffffffffffffff1614159050919050565b6001811115611c2057600073ffffffffffffffffffffffffffffffffffffffff168473ffffffffffffffffffffffffffffffffffffffff1614611b945780600360008673ffffffffffffffffffffffffffffffffffffffff1673ffffffffffffffffffffffffffffffffffffffff1681526020019081526020016000206000828254611b8c91906137a4565b925050819055505b600073ffffffffffffffffffffffffffffffffffffffff168373ffffffffffffffffffffffffffffffffffffffff1614611c1f5780600360008573ffffffffffffffffffffffffffffffffffffffff1673ffffffffffffffffffffffffffffffffffffffff1681526020019081526020016000206000828254611c179190612f7d565b925050819055505b5b50505050565b50505050565b6000611c4d8473ffffffffffffffffffffffffffffffffffffffff16611f46565b15611da6578373ffffffffffffffffffffffffffffffffffffffff1663150b7a02611c76611093565b8786866040518563ffffffff1660e01b8152600401611c98949392919061382d565b6020604051808303816000875af1925050508015611cd457506040513d601f19601f82011682018060405250810190611cd1919061388e565b60015b611d56573d8060008114611d04576040519150601f19603f3d011682016040523d82523d6000602084013e611d09565b606091505b506000815103611d4e576040517f08c379a0000000000000000000000000000000000000000000000000000000008152600401611d4590613380565b60405180910390fd5b805181602001fd5b63150b7a0260e01b7bffffffffffffffffffffffffffffffffffffffffffffffffffffffff1916817bffffffffffffffffffffffffffffffffffffffffffffffffffffffff191614915050611dab565b600190505b949350505050565b606060006001611dc284611f69565b01905060008167ffffffffffffffff811115611de157611de061270e565b5b6040519080825280601f01601f191660200182016040528015611e135781602001600182028036833780820191505090505b509050600082602001820190505b600115611e76578080600190039150507f3031323334353637383961626364656600000000000000000000000000000000600a86061a8153600a8581611e6a57611e69612ce7565b5b04945060008503611e21575b819350505050919050565b611e8b83836120bc565b611e986000848484611c2c565b611ed7576040517f08c379a0000000000000000000000000000000000000000000000000000000008152600401611ece90613380565b60405180910390fd5b505050565b60007f01ffc9a7000000000000000000000000000000000000000000000000000000007bffffffffffffffffffffffffffffffffffffffffffffffffffffffff1916827bffffffffffffffffffffffffffffffffffffffffffffffffffffffff1916149050919050565b6000808273ffffffffffffffffffffffffffffffffffffffff163b119050919050565b600080600090507a184f03e93ff9f4daa797ed6e38ed64bf6a1f0100000000000000008310611fc7577a184f03e93ff9f4daa797ed6e38ed64bf6a1f0100000000000000008381611fbd57611fbc612ce7565b5b0492506040810190505b6d04ee2d6d415b85acef81000000008310612004576d04ee2d6d415b85acef81000000008381611ffa57611ff9612ce7565b5b0492506020810190505b662386f26fc10000831061203357662386f26fc10000838161202957612028612ce7565b5b0492506010810190505b6305f5e100831061205c576305f5e100838161205257612051612ce7565b5b0492506008810190505b612710831061208157612710838161207757612076612ce7565b5b0492506004810190505b606483106120a4576064838161209a57612099612ce7565b5b0492506002810190505b600a83106120b3576001810190505b80915050919050565b600073ffffffffffffffffffffffffffffffffffffffff168273ffffffffffffffffffffffffffffffffffffffff160361212b576040517f08c379a000000000000000000000000000000000000000000000000000000000815260040161212290613907565b60405180910390fd5b61213481611abf565b15612174576040517f08c379a000000000000000000000000000000000000000000000000000000000815260040161216b90613973565b60405180910390fd5b612182600083836001611b00565b61218b81611abf565b156121cb576040517f08c379a00000000000000000000000000000000000000000000000000000000081526004016121c290613973565b60405180910390fd5b6001600360008473ffffffffffffffffffffffffffffffffffffffff1673ffffffffffffffffffffffffffffffffffffffff16815260200190815260200160002060008282540192505081905550816002600083815260200190815260200160002060006101000a81548173ffffffffffffffffffffffffffffffffffffffff021916908373ffffffffffffffffffffffffffffffffffffffff160217905550808273ffffffffffffffffffffffffffffffffffffffff16600073ffffffffffffffffffffffffffffffffffffffff167fddf252ad1be2c89b69c2b068fc378daa952ba7f163c4a11628f55a4df523b3ef60405160405180910390a46122d5600083836001611c26565b5050565b6000604051905090565b600080fd5b600080fd5b60007fffffffff0000000000000000000000000000000000000000000000000000000082169050919050565b612322816122ed565b811461232d57600080fd5b50565b60008135905061233f81612319565b92915050565b60006020828403121561235b5761235a6122e3565b5b600061236984828501612330565b91505092915050565b60008115159050919050565b61238781612372565b82525050565b60006020820190506123a2600083018461237e565b92915050565b600081519050919050565b600082825260208201905092915050565b60005b838110156123e25780820151818401526020810190506123c7565b60008484015250505050565b6000601f19601f8301169050919050565b600061240a826123a8565b61241481856123b3565b93506124248185602086016123c4565b61242d816123ee565b840191505092915050565b6000602082019050818103600083015261245281846123ff565b905092915050565b6000819050919050565b61246d8161245a565b811461247857600080fd5b50565b60008135905061248a81612464565b92915050565b6000602082840312156124a6576124a56122e3565b5b60006124b48482850161247b565b91505092915050565b600073ffffffffffffffffffffffffffffffffffffffff82169050919050565b60006124e8826124bd565b9050919050565b6124f8816124dd565b82525050565b600060208201905061251360008301846124ef565b92915050565b612522816124dd565b811461252d57600080fd5b50565b60008135905061253f81612519565b92915050565b6000806040838503121561255c5761255b6122e3565b5b600061256a85828601612530565b925050602061257b8582860161247b565b9150509250929050565b60008060006060848603121561259e5761259d6122e3565b5b60006125ac86828701612530565b93505060206125bd86828701612530565b92505060406125ce8682870161247b565b9150509250925092565b600080604083850312156125ef576125ee6122e3565b5b60006125fd8582860161247b565b925050602061260e8582860161247b565b9150509250929050565b6126218161245a565b82525050565b600060408201905061263c60008301856124ef565b6126496020830184612618565b9392505050565b600060208284031215612666576126656122e3565b5b600061267484828501612530565b91505092915050565b60006020820190506126926000830184612618565b92915050565b6126a181612372565b81146126ac57600080fd5b50565b6000813590506126be81612698565b92915050565b600080604083850312156126db576126da6122e3565b5b60006126e985828601612530565b92505060206126fa858286016126af565b9150509250929050565b600080fd5b600080fd5b7f4e487b7100000000000000000000000000000000000000000000000000000000600052604160045260246000fd5b612746826123ee565b810181811067ffffffffffffffff821117156127655761276461270e565b5b80604052505050565b60006127786122d9565b9050612784828261273d565b919050565b600067ffffffffffffffff8211156127a4576127a361270e565b5b6127ad826123ee565b9050602081019050919050565b82818337600083830152505050565b60006127dc6127d784612789565b61276e565b9050828152602081018484840111156127f8576127f7612709565b5b6128038482856127ba565b509392505050565b600082601f8301126128205761281f612704565b5b81356128308482602086016127c9565b91505092915050565b60008060008060808587031215612853576128526122e3565b5b600061286187828801612530565b945050602061287287828801612530565b93505060406128838782880161247b565b925050606085013567ffffffffffffffff8111156128a4576128a36122e8565b5b6128b08782880161280b565b91505092959194509250565b600067ffffffffffffffff8211156128d7576128d661270e565b5b6128e0826123ee565b9050602081019050919050565b60006129006128fb846128bc565b61276e565b90508281526020810184848401111561291c5761291b612709565b5b6129278482856127ba565b509392505050565b600082601f83011261294457612943612704565b5b81356129548482602086016128ed565b91505092915050565b600060208284031215612973576129726122e3565b5b600082013567ffffffffffffffff811115612991576129906122e8565b5b61299d8482850161292f565b91505092915050565b600080604083850312156129bd576129bc6122e3565b5b60006129cb85828601612530565b92505060206129dc85828601612530565b9150509250929050565b600061ffff82169050919050565b6129fd816129e6565b8114612a0857600080fd5b50565b600081359050612a1a816129f4565b92915050565b60008060408385031215612a3757612a366122e3565b5b6000612a4585828601612530565b9250506020612a5685828601612a0b565b9150509250929050565b7f4e487b7100000000000000000000000000000000000000000000000000000000600052602260045260246000fd5b60006002820490506001821680612aa757607f821691505b602082108103612aba57612ab9612a60565b5b50919050565b7f4552433732313a20617070726f76616c20746f2063757272656e74206f776e6560008201527f7200000000000000000000000000000000000000000000000000000000000000602082015250565b6000612b1c6021836123b3565b9150612b2782612ac0565b604082019050919050565b60006020820190508181036000830152612b4b81612b0f565b9050919050565b7f4552433732313a20617070726f76652063616c6c6572206973206e6f7420746f60008201527f6b656e206f776e6572206f7220617070726f76656420666f7220616c6c000000602082015250565b6000612bae603d836123b3565b9150612bb982612b52565b604082019050919050565b60006020820190508181036000830152612bdd81612ba1565b9050919050565b7f4552433732313a2063616c6c6572206973206e6f7420746f6b656e206f776e6560008201527f72206f7220617070726f76656400000000000000000000000000000000000000602082015250565b6000612c40602d836123b3565b9150612c4b82612be4565b604082019050919050565b60006020820190508181036000830152612c6f81612c33565b9050919050565b7f4e487b7100000000000000000000000000000000000000000000000000000000600052601160045260246000fd5b6000612cb08261245a565b9150612cbb8361245a565b9250828202612cc98161245a565b91508282048414831517612ce057612cdf612c76565b5b5092915050565b7f4e487b7100000000000000000000000000000000000000000000000000000000600052601260045260246000fd5b6000612d218261245a565b9150612d2c8361245a565b925082612d3c57612d3b612ce7565b5b828204905092915050565b7f4552433732313a20696e76616c696420746f6b656e2049440000000000000000600082015250565b6000612d7d6018836123b3565b9150612d8882612d47565b602082019050919050565b60006020820190508181036000830152612dac81612d70565b9050919050565b7f4552433732313a2061646472657373207a65726f206973206e6f74206120766160008201527f6c6964206f776e65720000000000000000000000000000000000000000000000602082015250565b6000612e0f6029836123b3565b9150612e1a82612db3565b604082019050919050565b60006020820190508181036000830152612e3e81612e02565b9050919050565b7f6e6f74206f776e65720000000000000000000000000000000000000000000000600082015250565b6000612e7b6009836123b3565b9150612e8682612e45565b602082019050919050565b60006020820190508181036000830152612eaa81612e6e565b9050919050565b600081905092915050565b6000612ec7826123a8565b612ed18185612eb1565b9350612ee18185602086016123c4565b80840191505092915050565b6000612ef98285612ebc565b9150612f058284612ebc565b91508190509392505050565b7f6e6f20746f6b656e207572690000000000000000000000000000000000000000600082015250565b6000612f47600c836123b3565b9150612f5282612f11565b602082019050919050565b60006020820190508181036000830152612f7681612f3a565b9050919050565b6000612f888261245a565b9150612f938361245a565b9250828201905080821115612fab57612faa612c76565b5b92915050565b6000608082019050612fc66000830187612618565b8181036020830152612fd881866123ff565b9050612fe760408301856124ef565b8181036060830152612ff981846123ff565b905095945050505050565b7f726563697069656e742063616e6e6f7420626520656d70747900000000000000600082015250565b600061303a6019836123b3565b915061304582613004565b602082019050919050565b600060208201905081810360008301526130698161302d565b9050919050565b7f726f79616c7479206665652063616e6e6f74206265206d6f7265207468616e2060008201527f3130250000000000000000000000000000000000000000000000000000000000602082015250565b60006130cc6023836123b3565b91506130d782613070565b604082019050919050565b600060208201905081810360008301526130fb816130bf565b9050919050565b60006bffffffffffffffffffffffff82169050919050565b6000819050919050565b600061313f61313a613135846129e6565b61311a565b613102565b9050919050565b61314f81613124565b82525050565b600060408201905061316a60008301856124ef565b6131776020830184613146565b9392505050565b7f4552433732313a207472616e736665722066726f6d20696e636f72726563742060008201527f6f776e6572000000000000000000000000000000000000000000000000000000602082015250565b60006131da6025836123b3565b91506131e58261317e565b604082019050919050565b60006020820190508181036000830152613209816131cd565b9050919050565b7f4552433732313a207472616e7366657220746f20746865207a65726f2061646460008201527f7265737300000000000000000000000000000000000000000000000000000000602082015250565b600061326c6024836123b3565b915061327782613210565b604082019050919050565b6000602082019050818103600083015261329b8161325f565b9050919050565b7f4552433732313a20617070726f766520746f2063616c6c657200000000000000600082015250565b60006132d86019836123b3565b91506132e3826132a2565b602082019050919050565b60006020820190508181036000830152613307816132cb565b9050919050565b7f4552433732313a207472616e7366657220746f206e6f6e20455243373231526560008201527f63656976657220696d706c656d656e7465720000000000000000000000000000602082015250565b600061336a6032836123b3565b91506133758261330e565b604082019050919050565b600060208201905081810360008301526133998161335d565b9050919050565b7f45524337323155524953746f726167653a2055524920736574206f66206e6f6e60008201527f6578697374656e7420746f6b656e000000000000000000000000000000000000602082015250565b60006133fc602e836123b3565b9150613407826133a0565b604082019050919050565b6000602082019050818103600083015261342b816133ef565b9050919050565b60008190508160005260206000209050919050565b60006020601f8301049050919050565b600082821b905092915050565b6000600883026134947fffffffffffffffffffffffffffffffffffffffffffffffffffffffffffffffff82613457565b61349e8683613457565b95508019841693508086168417925050509392505050565b60006134d16134cc6134c78461245a565b61311a565b61245a565b9050919050565b6000819050919050565b6134eb836134b6565b6134ff6134f7826134d8565b848454613464565b825550505050565b600090565b613514613507565b61351f8184846134e2565b505050565b5b818110156135435761353860008261350c565b600181019050613525565b5050565b601f8211156135885761355981613432565b61356284613447565b81016020851015613571578190505b61358561357d85613447565b830182613524565b50505b505050565b600082821c905092915050565b60006135ab6000198460080261358d565b1980831691505092915050565b60006135c4838361359a565b9150826002028217905092915050565b6135dd826123a8565b67ffffffffffffffff8111156135f6576135f561270e565b5b6136008254612a8f565b61360b828285613547565b600060209050601f83116001811461363e576000841561362c578287015190505b61363685826135b8565b86555061369e565b601f19841661364c86613432565b60005b828110156136745784890151825560018201915060208501945060208101905061364f565b86831015613691578489015161368d601f89168261359a565b8355505b6001600288020188555050505b505050505050565b7f455243323938313a20726f79616c7479206665652077696c6c2065786365656460008201527f2073616c65507269636500000000000000000000000000000000000000000000602082015250565b6000613702602a836123b3565b915061370d826136a6565b604082019050919050565b60006020820190508181036000830152613731816136f5565b9050919050565b7f455243323938313a20696e76616c696420726563656976657200000000000000600082015250565b600061376e6019836123b3565b915061377982613738565b602082019050919050565b6000602082019050818103600083015261379d81613761565b9050919050565b60006137af8261245a565b91506137ba8361245a565b92508282039050818111156137d2576137d1612c76565b5b92915050565b600081519050919050565b600082825260208201905092915050565b60006137ff826137d8565b61380981856137e3565b93506138198185602086016123c4565b613822816123ee565b840191505092915050565b600060808201905061384260008301876124ef565b61384f60208301866124ef565b61385c6040830185612618565b818103606083015261386e81846137f4565b905095945050505050565b60008151905061388881612319565b92915050565b6000602082840312156138a4576138a36122e3565b5b60006138b284828501613879565b91505092915050565b7f4552433732313a206d696e7420746f20746865207a65726f2061646472657373600082015250565b60006138f16020836123b3565b91506138fc826138bb565b602082019050919050565b60006020820190508181036000830152613920816138e4565b9050919050565b7f4552433732313a20746f6b656e20616c7265616479206d696e74656400000000600082015250565b600061395d601c836123b3565b915061396882613927565b602082019050919050565b6000602082019050818103600083015261398c81613950565b905091905056fea264697066735822122042eeb8818358e8754551568301f1a74c182c668eadae0b3be4098108f91cb11d64736f6c63430008110033",
  "devdoc": {
    "events": {
      "Minted(uint256,string,address,string)": {
        "details": "events of the contract"
      }
    },
    "kind": "dev",
    "methods": {
      "approve(address,uint256)": {
        "details": "See {IERC721-approve}."
      },
      "balanceOf(address)": {
        "details": "See {IERC721-balanceOf}."
      },
      "getApproved(uint256)": {
        "details": "See {IERC721-getApproved}."
      },
      "isApprovedForAll(address,address)": {
        "details": "See {IERC721-isApprovedForAll}."
      },
      "name()": {
        "details": "See {IERC721Metadata-name}."
      },
      "ownerOf(uint256)": {
        "details": "See {IERC721-ownerOf}."
      },
      "royaltyInfo(uint256,uint256)": {
        "details": "Returns how much royalty is owed and to whom, based on a sale price that may be denominated in any unit of exchange. The royalty amount is denominated and should be paid in that same unit of exchange."
      },
      "safeTransferFrom(address,address,uint256)": {
        "details": "See {IERC721-safeTransferFrom}."
      },
      "safeTransferFrom(address,address,uint256,bytes)": {
        "details": "See {IERC721-safeTransferFrom}."
      },
      "setApprovalForAll(address,bool)": {
        "details": "See {IERC721-setApprovalForAll}."
      },
      "symbol()": {
        "details": "See {IERC721Metadata-symbol}."
      },
      "tokenURI(uint256)": {
        "details": "See {IERC721Metadata-tokenURI}."
      },
      "transferFrom(address,address,uint256)": {
        "details": "See {IERC721-transferFrom}."
      },
      "updateRoyalty(address,uint16)": {
        "details": "only admin",
        "params": {
          "_feeRecipient": "new fee recipient to receive platform fee",
          "_royaltyFee": "new royalty fee to set"
        }
      }
    },
    "version": 1
  },
  "userdoc": {
    "kind": "user",
    "methods": {
      "constructor": {
        "notice": "contract constructor for initializing new collection"
      },
      "owner()": {
        "notice": "owner of the collection"
      },
      "removeRoyalty()": {
        "notice": "Method for removing the royalty"
      },
      "tokenIds()": {
        "notice": "token id counter"
      },
      "updateRoyalty(address,uint16)": {
        "notice": "updates the royalty status"
      }
    },
    "version": 1
  },
  "storageLayout": {
    "storage": [
      {
        "astId": 788,
        "contract": "contracts/NFTCollection.sol:NFTCollection",
        "label": "_name",
        "offset": 0,
        "slot": "0",
        "type": "t_string_storage"
      },
      {
        "astId": 790,
        "contract": "contracts/NFTCollection.sol:NFTCollection",
        "label": "_symbol",
        "offset": 0,
        "slot": "1",
        "type": "t_string_storage"
      },
      {
        "astId": 794,
        "contract": "contracts/NFTCollection.sol:NFTCollection",
        "label": "_owners",
        "offset": 0,
        "slot": "2",
        "type": "t_mapping(t_uint256,t_address)"
      },
      {
        "astId": 798,
        "contract": "contracts/NFTCollection.sol:NFTCollection",
        "label": "_balances",
        "offset": 0,
        "slot": "3",
        "type": "t_mapping(t_address,t_uint256)"
      },
      {
        "astId": 802,
        "contract": "contracts/NFTCollection.sol:NFTCollection",
        "label": "_tokenApprovals",
        "offset": 0,
        "slot": "4",
        "type": "t_mapping(t_uint256,t_address)"
      },
      {
        "astId": 808,
        "contract": "contracts/NFTCollection.sol:NFTCollection",
        "label": "_operatorApprovals",
        "offset": 0,
        "slot": "5",
        "type": "t_mapping(t_address,t_mapping(t_address,t_bool))"
      },
      {
        "astId": 1854,
        "contract": "contracts/NFTCollection.sol:NFTCollection",
        "label": "_tokenURIs",
        "offset": 0,
        "slot": "6",
        "type": "t_mapping(t_uint256,t_string_storage)"
      },
      {
        "astId": 2010,
        "contract": "contracts/NFTCollection.sol:NFTCollection",
        "label": "_defaultRoyaltyInfo",
        "offset": 0,
        "slot": "7",
        "type": "t_struct(RoyaltyInfo)2007_storage"
      },
      {
        "astId": 2015,
        "contract": "contracts/NFTCollection.sol:NFTCollection",
        "label": "_tokenRoyaltyInfo",
        "offset": 0,
        "slot": "8",
        "type": "t_mapping(t_uint256,t_struct(RoyaltyInfo)2007_storage)"
      },
      {
        "astId": 6308,
        "contract": "contracts/NFTCollection.sol:NFTCollection",
        "label": "tokenIds",
        "offset": 0,
        "slot": "9",
        "type": "t_uint256"
      }
    ],
    "types": {
      "t_address": {
        "encoding": "inplace",
        "label": "address",
        "numberOfBytes": "20"
      },
      "t_bool": {
        "encoding": "inplace",
        "label": "bool",
        "numberOfBytes": "1"
      },
      "t_mapping(t_address,t_bool)": {
        "encoding": "mapping",
        "key": "t_address",
        "label": "mapping(address => bool)",
        "numberOfBytes": "32",
        "value": "t_bool"
      },
      "t_mapping(t_address,t_mapping(t_address,t_bool))": {
        "encoding": "mapping",
        "key": "t_address",
        "label": "mapping(address => mapping(address => bool))",
        "numberOfBytes": "32",
        "value": "t_mapping(t_address,t_bool)"
      },
      "t_mapping(t_address,t_uint256)": {
        "encoding": "mapping",
        "key": "t_address",
        "label": "mapping(address => uint256)",
        "numberOfBytes": "32",
        "value": "t_uint256"
      },
      "t_mapping(t_uint256,t_address)": {
        "encoding": "mapping",
        "key": "t_uint256",
        "label": "mapping(uint256 => address)",
        "numberOfBytes": "32",
        "value": "t_address"
      },
      "t_mapping(t_uint256,t_string_storage)": {
        "encoding": "mapping",
        "key": "t_uint256",
        "label": "mapping(uint256 => string)",
        "numberOfBytes": "32",
        "value": "t_string_storage"
      },
      "t_mapping(t_uint256,t_struct(RoyaltyInfo)2007_storage)": {
        "encoding": "mapping",
        "key": "t_uint256",
        "label": "mapping(uint256 => struct ERC2981.RoyaltyInfo)",
        "numberOfBytes": "32",
        "value": "t_struct(RoyaltyInfo)2007_storage"
      },
      "t_string_storage": {
        "encoding": "bytes",
        "label": "string",
        "numberOfBytes": "32"
      },
      "t_struct(RoyaltyInfo)2007_storage": {
        "encoding": "inplace",
        "label": "struct ERC2981.RoyaltyInfo",
        "members": [
          {
            "astId": 2004,
            "contract": "contracts/NFTCollection.sol:NFTCollection",
            "label": "receiver",
            "offset": 0,
            "slot": "0",
            "type": "t_address"
          },
          {
            "astId": 2006,
            "contract": "contracts/NFTCollection.sol:NFTCollection",
            "label": "royaltyFraction",
            "offset": 20,
            "slot": "0",
            "type": "t_uint96"
          }
        ],
        "numberOfBytes": "32"
      },
      "t_uint256": {
        "encoding": "inplace",
        "label": "uint256",
        "numberOfBytes": "32"
      },
      "t_uint96": {
        "encoding": "inplace",
        "label": "uint96",
        "numberOfBytes": "12"
      }
    }
  }
}